{
  "_format": "hh-sol-artifact-1",
  "contractName": "MarketPlace",
  "sourceName": "contracts/MarketPlace.sol",
  "abi": [
    {
      "anonymous": false,
      "inputs": [
        {
          "indexed": true,
          "internalType": "uint256",
          "name": "itemId",
          "type": "uint256"
        },
        {
          "indexed": true,
          "internalType": "address",
          "name": "bidder",
          "type": "address"
        },
        {
          "indexed": false,
          "internalType": "uint256",
          "name": "amount",
          "type": "uint256"
        }
      ],
      "name": "MarketItemBid",
      "type": "event"
    },
    {
      "anonymous": false,
      "inputs": [
        {
          "indexed": true,
          "internalType": "uint256",
          "name": "itemId",
          "type": "uint256"
        },
        {
          "indexed": true,
          "internalType": "address",
          "name": "nftContract",
          "type": "address"
        },
        {
          "indexed": true,
          "internalType": "uint256",
          "name": "tokenId",
          "type": "uint256"
        },
        {
          "indexed": false,
          "internalType": "address",
          "name": "seller",
          "type": "address"
        },
        {
          "indexed": false,
          "internalType": "address",
          "name": "owner",
          "type": "address"
        },
        {
          "indexed": false,
          "internalType": "uint256",
          "name": "price",
          "type": "uint256"
        }
      ],
      "name": "MarketItemCreated",
      "type": "event"
    },
    {
      "anonymous": false,
      "inputs": [
        {
          "indexed": false,
          "internalType": "uint256",
          "name": "itemId",
          "type": "uint256"
        },
        {
          "indexed": true,
          "internalType": "address",
          "name": "nftContract",
          "type": "address"
        },
        {
          "indexed": true,
          "internalType": "address",
          "name": "seller",
          "type": "address"
        },
        {
          "indexed": true,
          "internalType": "address",
          "name": "newOwner",
          "type": "address"
        }
      ],
      "name": "MarketItemSold",
      "type": "event"
    },
    {
      "anonymous": false,
      "inputs": [
        {
          "indexed": false,
          "internalType": "uint256",
          "name": "itemId",
          "type": "uint256"
        }
      ],
      "name": "MarketItemUnlisted",
      "type": "event"
    },
    {
      "inputs": [],
      "name": "ERC2981INTERFACE",
      "outputs": [
        {
          "internalType": "bytes4",
          "name": "",
          "type": "bytes4"
        }
      ],
      "stateMutability": "view",
      "type": "function"
    },
    {
      "inputs": [],
      "name": "ERC721INTERFACE",
      "outputs": [
        {
          "internalType": "bytes4",
          "name": "",
          "type": "bytes4"
        }
      ],
      "stateMutability": "view",
      "type": "function"
    },
    {
      "inputs": [
        {
          "internalType": "uint256",
          "name": "itemId",
          "type": "uint256"
        }
      ],
      "name": "createAuctionBid",
      "outputs": [],
      "stateMutability": "payable",
      "type": "function"
    },
    {
      "inputs": [
        {
          "internalType": "address",
          "name": "nftContract",
          "type": "address"
        },
        {
          "internalType": "uint256",
          "name": "itemId",
          "type": "uint256"
        }
      ],
      "name": "createAuctionSale",
      "outputs": [],
      "stateMutability": "payable",
      "type": "function"
    },
    {
      "inputs": [
        {
          "internalType": "address",
          "name": "nftContract",
          "type": "address"
        },
        {
          "internalType": "uint256",
          "name": "tokenId",
          "type": "uint256"
        },
        {
          "internalType": "uint256",
          "name": "floorPrice",
          "type": "uint256"
        },
        {
          "internalType": "uint256",
          "name": "auctionDays",
          "type": "uint256"
        }
      ],
      "name": "createMarketAuction",
      "outputs": [],
      "stateMutability": "payable",
      "type": "function"
    },
    {
      "inputs": [
        {
          "internalType": "address",
          "name": "nftContract",
          "type": "address"
        },
        {
          "internalType": "uint256",
          "name": "tokenId",
          "type": "uint256"
        },
        {
          "internalType": "uint256",
          "name": "price",
          "type": "uint256"
        }
      ],
      "name": "createMarketItem",
      "outputs": [],
      "stateMutability": "payable",
      "type": "function"
    },
    {
      "inputs": [
        {
          "internalType": "address",
          "name": "nftContract",
          "type": "address"
        },
        {
          "internalType": "uint256",
          "name": "itemId",
          "type": "uint256"
        }
      ],
      "name": "createMarketSale",
      "outputs": [],
      "stateMutability": "payable",
      "type": "function"
    },
    {
      "inputs": [],
      "name": "fetchItemsCreated",
      "outputs": [
        {
          "components": [
            {
              "internalType": "uint256",
              "name": "itemId",
              "type": "uint256"
            },
            {
              "internalType": "address",
              "name": "nftContract",
              "type": "address"
            },
            {
              "internalType": "uint256",
              "name": "tokenId",
              "type": "uint256"
            },
            {
              "internalType": "address payable",
              "name": "creator",
              "type": "address"
            },
            {
              "internalType": "address payable",
              "name": "seller",
              "type": "address"
            },
            {
              "internalType": "address payable",
              "name": "owner",
              "type": "address"
            },
            {
              "internalType": "uint256",
              "name": "price",
              "type": "uint256"
            },
            {
              "internalType": "uint256",
              "name": "royalty",
              "type": "uint256"
            },
            {
              "internalType": "bool",
              "name": "isAuction",
              "type": "bool"
            },
            {
              "internalType": "bool",
              "name": "sold",
              "type": "bool"
            }
          ],
          "internalType": "struct MarketPlace.MarketItem[]",
          "name": "",
          "type": "tuple[]"
        }
      ],
      "stateMutability": "view",
      "type": "function"
    },
    {
      "inputs": [],
      "name": "fetchMarketItems",
      "outputs": [
        {
          "components": [
            {
              "internalType": "uint256",
              "name": "itemId",
              "type": "uint256"
            },
            {
              "internalType": "address",
              "name": "nftContract",
              "type": "address"
            },
            {
              "internalType": "uint256",
              "name": "tokenId",
              "type": "uint256"
            },
            {
              "internalType": "address payable",
              "name": "creator",
              "type": "address"
            },
            {
              "internalType": "address payable",
              "name": "seller",
              "type": "address"
            },
            {
              "internalType": "address payable",
              "name": "owner",
              "type": "address"
            },
            {
              "internalType": "uint256",
              "name": "price",
              "type": "uint256"
            },
            {
              "internalType": "uint256",
              "name": "royalty",
              "type": "uint256"
            },
            {
              "internalType": "bool",
              "name": "isAuction",
              "type": "bool"
            },
            {
              "internalType": "bool",
              "name": "sold",
              "type": "bool"
            }
          ],
          "internalType": "struct MarketPlace.MarketItem[]",
          "name": "",
          "type": "tuple[]"
        },
        {
          "components": [
            {
              "internalType": "uint256",
              "name": "highestBid",
              "type": "uint256"
            },
            {
              "internalType": "address",
              "name": "highestBidder",
              "type": "address"
            },
            {
              "internalType": "uint256",
              "name": "timeEnding",
              "type": "uint256"
            }
          ],
          "internalType": "struct MarketPlace.AuctionInfo[]",
          "name": "",
          "type": "tuple[]"
        }
      ],
      "stateMutability": "view",
      "type": "function"
    },
    {
      "inputs": [],
      "name": "fetchMyNFTs",
      "outputs": [
        {
          "components": [
            {
              "internalType": "uint256",
              "name": "itemId",
              "type": "uint256"
            },
            {
              "internalType": "address",
              "name": "nftContract",
              "type": "address"
            },
            {
              "internalType": "uint256",
              "name": "tokenId",
              "type": "uint256"
            },
            {
              "internalType": "address payable",
              "name": "creator",
              "type": "address"
            },
            {
              "internalType": "address payable",
              "name": "seller",
              "type": "address"
            },
            {
              "internalType": "address payable",
              "name": "owner",
              "type": "address"
            },
            {
              "internalType": "uint256",
              "name": "price",
              "type": "uint256"
            },
            {
              "internalType": "uint256",
              "name": "royalty",
              "type": "uint256"
            },
            {
              "internalType": "bool",
              "name": "isAuction",
              "type": "bool"
            },
            {
              "internalType": "bool",
              "name": "sold",
              "type": "bool"
            }
          ],
          "internalType": "struct MarketPlace.MarketItem[]",
          "name": "",
          "type": "tuple[]"
        }
      ],
      "stateMutability": "view",
      "type": "function"
    },
    {
      "inputs": [],
      "name": "fetchUserBids",
      "outputs": [
        {
          "components": [
            {
              "internalType": "uint256",
              "name": "itemId",
              "type": "uint256"
            },
            {
              "internalType": "address",
              "name": "nftContract",
              "type": "address"
            },
            {
              "internalType": "uint256",
              "name": "tokenId",
              "type": "uint256"
            },
            {
              "internalType": "address payable",
              "name": "creator",
              "type": "address"
            },
            {
              "internalType": "address payable",
              "name": "seller",
              "type": "address"
            },
            {
              "internalType": "address payable",
              "name": "owner",
              "type": "address"
            },
            {
              "internalType": "uint256",
              "name": "price",
              "type": "uint256"
            },
            {
              "internalType": "uint256",
              "name": "royalty",
              "type": "uint256"
            },
            {
              "internalType": "bool",
              "name": "isAuction",
              "type": "bool"
            },
            {
              "internalType": "bool",
              "name": "sold",
              "type": "bool"
            }
          ],
          "internalType": "struct MarketPlace.MarketItem[]",
          "name": "",
          "type": "tuple[]"
        },
        {
          "components": [
            {
              "internalType": "uint256",
              "name": "highestBid",
              "type": "uint256"
            },
            {
              "internalType": "address",
              "name": "highestBidder",
              "type": "address"
            },
            {
              "internalType": "uint256",
              "name": "timeEnding",
              "type": "uint256"
            }
          ],
          "internalType": "struct MarketPlace.AuctionInfo[]",
          "name": "",
          "type": "tuple[]"
        }
      ],
      "stateMutability": "view",
      "type": "function"
    },
    {
      "inputs": [
        {
          "internalType": "uint256",
          "name": "itemId",
          "type": "uint256"
        }
      ],
      "name": "unlistItem",
      "outputs": [],
      "stateMutability": "nonpayable",
      "type": "function"
    }
  ],
  "bytecode": "0x608060405234801561001057600080fd5b506001600055612a10806100256000396000f3fe6080604052600436106100a75760003560e01c80635a599da8116100645780635a599da81461016d5780635f3d48061461018d57806362822f80146101a2578063be87e081146101b5578063c23b139e146101c8578063f064c32e146101db576100a7565b806307cb1a6e146100ac5780630f08efe0146100e55780631879c75014610108578063202e37401461012357806348b7e2b71461014557806358eb2df51461015a575b600080fd5b3480156100b857600080fd5b506100c76380ac58cd60e01b81565b6040516001600160e01b031990911681526020015b60405180910390f35b3480156100f157600080fd5b506100fa6101f0565b6040516100dc929190612899565b34801561011457600080fd5b506100c763152a902d60e11b81565b34801561012f57600080fd5b506101386104b6565b6040516100dc9190612886565b61015861015336600461267c565b6106cd565b005b6101586101683660046126d4565b610a50565b34801561017957600080fd5b50610158610188366004612762565b610ffc565b34801561019957600080fd5b506100fa6112b5565b6101586101b0366004612762565b6115b9565b6101586101c3366004612708565b61185a565b6101586101d636600461267c565b611f82565b3480156101e757600080fd5b506101386122b6565b60608060006101fe60015490565b9050600061020b60025490565b600154610218919061297a565b90506000808267ffffffffffffffff81111561024457634e487b7160e01b600052604160045260246000fd5b60405190808252806020026020018201604052801561027d57816020015b61026a612605565b8152602001906001900390816102625790505b50905060008367ffffffffffffffff8111156102a957634e487b7160e01b600052604160045260246000fd5b60405190808252806020026020018201604052801561030757816020015b6102f460405180606001604052806000815260200160006001600160a01b03168152602001600081525090565b8152602001906001900390816102c75790505b50905060005b858110156104a95760036000610324836001612943565b8152602081019190915260400160002060080154610100900460ff16610497576000610351826001612943565b60008181526003602081815260408084206004808452948290208251610140810184528254815260018301546001600160a01b039081169582019590955260028301549381019390935293810154831660608301529384015482166080820152600584015490911660a0820152600683015460c0820152600783015460e0820152600883015460ff8082161515610100808501919091529091041615156101208201528751939450919290919087908990811061041e57634e487b7160e01b600052603260045260246000fd5b602090810291909101810191909152604080516060810182528354815260018401546001600160a01b031692810192909252600283015490820152855186908990811061047b57634e487b7160e01b600052603260045260246000fd5b6020908102919091010152610491600188612943565b96505050505b806104a181612991565b91505061030d565b5090955093505050509091565b606060006104c360015490565b905060008060005b838110156105265733600360006104e3846001612943565b81526020810191909152604001600020600501546001600160a01b0316141561051457610511600184612943565b92505b8061051e81612991565b9150506104cb565b5060008267ffffffffffffffff81111561055057634e487b7160e01b600052604160045260246000fd5b60405190808252806020026020018201604052801561058957816020015b610576612605565b81526020019060019003908161056e5790505b50905060005b848110156106c45733600360006105a7846001612943565b81526020810191909152604001600020600501546001600160a01b031614156106b25760006105d7826001612943565b6000818152600360208181526040928390208351610140810185528154815260018201546001600160a01b0390811693820193909352600282015494810194909452918201548116606084015260048201548116608084015260058201541660a0830152600681015460c0830152600781015460e0830152600881015460ff80821615156101008086019190915290910416151561012083015285519293509185908790811061069757634e487b7160e01b600052603260045260246000fd5b60209081029190910101526106ad600186612943565b945050505b806106bc81612991565b91505061058f565b50935050505090565b600260005414156106f95760405162461bcd60e51b81526004016106f09061290c565b60405180910390fd5b6002600090815581815260036020908152604080832060049092529091206008820154610100900460ff16156107715760405162461bcd60e51b815260206004820152601a60248201527f4974656d2068617320616c7265616479206265656e20736f6c6400000000000060448201526064016106f0565b600882015460ff166107bf5760405162461bcd60e51b815260206004820152601760248201527624ba32b69034b9903737ba103337b91030bab1ba34b7b760491b60448201526064016106f0565b428160020154106108125760405162461bcd60e51b815260206004820152601960248201527f41756374696f6e20686173206e6f742079657420656e6465640000000000000060448201526064016106f0565b60018101546001600160a01b0316331461086e5760405162461bcd60e51b815260206004820181905260248201527f53656e646572206973206e6f742074686520686967686573742062696464657260448201526064016106f0565b600482015460038301546001600160a01b03908116911614156108cc5760018201546040516001600160a01b03909116903480156108fc02916000818181858888f193505050501580156108c6573d6000803e3d6000fd5b5061095b565b600482015460078301546040516001600160a01b039092169181156108fc0291906000818181858888f1935050505015801561090c573d6000803e3d6000fd5b50600482015460078301546001600160a01b03909116906108fc90610931903461297a565b6040518115909202916000818181858888f19350505050158015610959573d6000803e3d6000fd5b505b60028201546040516323b872dd60e01b81526001600160a01b038616916323b872dd9161098f913091339190600401612862565b600060405180830381600087803b1580156109a957600080fd5b505af11580156109bd573d6000803e3d6000fd5b5050506005830180546001600160a01b031916331790555060088201805461ff0019166101001790556109f4600280546001019055565b600582015460048301546040518581526001600160a01b0392831692918216918716907f947311168d2a40fc244919c4730e9cdd04e55a2c2db85589585acb09f89efe1e906020015b60405180910390a4505060016000555050565b60026000541415610a735760405162461bcd60e51b81526004016106f09061290c565b600260005580610ac55760405162461bcd60e51b815260206004820152601c60248201527f5072696365206d757374206265206174206c656173742031207765690000000060448201526064016106f0565b610ad6836380ac58cd60e01b6124c4565b610b225760405162461bcd60e51b815260206004820152601b60248201527f436f6e7472616374206e6565647320746f20626520455243373231000000000060448201526064016106f0565b6040516331a9108f60e11b81526004810183905233906001600160a01b03851690636352211e9060240160206040518083038186803b158015610b6457600080fd5b505afa158015610b78573d6000803e3d6000fd5b505050506040513d601f19601f82011682018060405250810190610b9c9190612659565b6001600160a01b031614610bf25760405162461bcd60e51b815260206004820152601d60248201527f4f6e6c79206f776e65722063616e20637265617465206c697374696e6700000060448201526064016106f0565b610c00600180546001019055565b6000610c0b60015490565b9050610c1e8463152a902d60e11b6124c4565b15610e565760405163152a902d60e11b8152600481018490526024810183905260009081906001600160a01b03871690632a55205a90604401604080518083038186803b158015610c6e57600080fd5b505afa158015610c82573d6000803e3d6000fd5b505050506040513d601f19601f82011682018060405250810190610ca691906126a7565b91509150604051806101400160405280848152602001876001600160a01b03168152602001868152602001836001600160a01b03168152602001336001600160a01b0316815260200160006001600160a01b0316815260200185815260200182815260200160001515815260200160001515815250600360008581526020019081526020016000206000820151816000015560208201518160010160006101000a8154816001600160a01b0302191690836001600160a01b031602179055506040820151816002015560608201518160030160006101000a8154816001600160a01b0302191690836001600160a01b0316021790555060808201518160040160006101000a8154816001600160a01b0302191690836001600160a01b0316021790555060a08201518160050160006101000a8154816001600160a01b0302191690836001600160a01b0316021790555060c0820151816006015560e082015181600701556101008201518160080160006101000a81548160ff0219169083151502179055506101208201518160080160016101000a81548160ff0219169083151502179055509050505050610f5a565b60408051610140810182528281526001600160a01b038087166020808401918252838501888152336060860181815260808701918252600060a0880181815260c089018c815260e08a01838152610100808c018581526101208d018681528f875260039a8b90529d9095209b518c55985160018c018054918c166001600160a01b0319928316179055965160028c01559351968a018054978a16978716979097179096559251600489018054918916918616919091179055915160058801805491909716931692909217909455905160068501555160078401559051600890920180549351151590910261ff00199215159290921661ffff19909316929092171790555b6040516323b872dd60e01b81526001600160a01b038516906323b872dd90610f8a90339030908890600401612862565b600060405180830381600087803b158015610fa457600080fd5b505af1158015610fb8573d6000803e3d6000fd5b5050505082846001600160a01b0316827f2ad024d53a0dc50c130967f8d4941927ee087ea31394cebb2b9599d3706c9c0033600087604051610a3d93929190612862565b6002600054141561101f5760405162461bcd60e51b81526004016106f09061290c565b6002600090815581815260036020526040902060080154610100900460ff161561108b5760405162461bcd60e51b815260206004820152601c60248201527f536f6c64206974656d732063616e277420626520756e6c69737465640000000060448201526064016106f0565b6000818152600360205260409020600401546001600160a01b031633146110eb5760405162461bcd60e51b815260206004820152601460248201527329b2b73232b91034b9903737ba103634b9ba32b960611b60448201526064016106f0565b60008181526003602052604090206008015460ff161561118257600081815260046020526040902080541561115957600181015481546040516001600160a01b039092169181156108fc0291906000818181858888f19350505050158015611157573d6000803e3d6000fd5b505b5060008181526004602052604081208181556001810180546001600160a01b0319169055600201555b60008181526003602052604090819020600181015460029091015491516323b872dd60e01b81526001600160a01b03909116916323b872dd916111cc913091339190600401612862565b600060405180830381600087803b1580156111e657600080fd5b505af11580156111fa573d6000803e3d6000fd5b505050600082815260036020819052604082208281556001810180546001600160a01b031990811690915560028083018590559282018054821690556004820180548216905560058201805490911690556006810183905560078101929092556008909101805461ffff191661010017905561127a915080546001019055565b6040518181527f1cda23a20f33fe41e032453215b343b1a71ca2d5d923673971254f6c733894809060200160405180910390a1506001600055565b60608060006112c360015490565b905060008060005b838110156113265733600460006112e3846001612943565b81526020810191909152604001600020600101546001600160a01b0316141561131457611311600184612943565b92505b8061131e81612991565b9150506112cb565b5060008267ffffffffffffffff81111561135057634e487b7160e01b600052604160045260246000fd5b60405190808252806020026020018201604052801561138957816020015b611376612605565b81526020019060019003908161136e5790505b50905060008367ffffffffffffffff8111156113b557634e487b7160e01b600052604160045260246000fd5b60405190808252806020026020018201604052801561141357816020015b61140060405180606001604052806000815260200160006001600160a01b03168152602001600081525090565b8152602001906001900390816113d35790505b50905060005b858110156104a9573360036000611431846001612943565b81526020810191909152604001600020600501546001600160a01b031614156115a7576000611461826001612943565b60008181526003602081815260408084206004808452948290208251610140810184528254815260018301546001600160a01b039081169582019590955260028301549381019390935293810154831660608301529384015482166080820152600584015490911660a0820152600683015460c0820152600783015460e0820152600883015460ff8082161515610100808501919091529091041615156101208201528751939450919290919087908990811061152e57634e487b7160e01b600052603260045260246000fd5b602090810291909101810191909152604080516060810182528354815260018401546001600160a01b031692810192909252600283015490820152855186908990811061158b57634e487b7160e01b600052603260045260246000fd5b60209081029190910101526115a1600188612943565b96505050505b806115b181612991565b915050611419565b600260005414156115dc5760405162461bcd60e51b81526004016106f09061290c565b6002600090815581815260036020908152604080832060049092529091206008820154610100900460ff16156116545760405162461bcd60e51b815260206004820152601a60248201527f4974656d2068617320616c7265616479206265656e20736f6c6400000000000060448201526064016106f0565b600882015460ff166116a25760405162461bcd60e51b815260206004820152601760248201527624ba32b69034b9903737ba103337b91030bab1ba34b7b760491b60448201526064016106f0565b428160020154116116f55760405162461bcd60e51b815260206004820152601960248201527f41756374696f6e2068617320616c726561647920656e6465640000000000000060448201526064016106f0565b816006015434116117565760405162461bcd60e51b815260206004820152602560248201527f596f75206e65656420746f20706179206d6f7265207468616e20666c6f6f7220604482015264707269636560d81b60648201526084016106f0565b805434116117bc5760405162461bcd60e51b815260206004820152602d60248201527f596f75206e65656420746f20706179206d6f7265207468616e2063757272656e60448201526c1d081a1a59da195cdd08189a59609a1b60648201526084016106f0565b600181015481546040516001600160a01b039092169181156108fc0291906000818181858888f193505050501580156117f9573d6000803e3d6000fd5b506001810180546001600160a01b031916339081179091553480835560405185917f15b8c46b3adaaaed6a15b987e48c55b5004e791f99bd3864378d38d4f355008f9161184891815260200190565b60405180910390a35050600160005550565b6002600054141561187d5760405162461bcd60e51b81526004016106f09061290c565b6002600055816118cf5760405162461bcd60e51b815260206004820152601c60248201527f5072696365206d757374206265206174206c656173742031207765690000000060448201526064016106f0565b6000811161191f5760405162461bcd60e51b815260206004820152601c60248201527f41756374696f6e2074696d652063616e2774206265203020646179730000000060448201526064016106f0565b611930846380ac58cd60e01b6124c4565b61197c5760405162461bcd60e51b815260206004820152601b60248201527f436f6e7472616374206e6565647320746f20626520455243373231000000000060448201526064016106f0565b6040516331a9108f60e11b81526004810184905233906001600160a01b03861690636352211e9060240160206040518083038186803b1580156119be57600080fd5b505afa1580156119d2573d6000803e3d6000fd5b505050506040513d601f19601f820116820180604052508101906119f69190612659565b6001600160a01b031614611a4c5760405162461bcd60e51b815260206004820152601d60248201527f4f6e6c79206f776e65722063616e20637265617465206c697374696e6700000060448201526064016106f0565b611a5a600180546001019055565b6000611a6560015490565b9050611a788563152a902d60e11b6124c4565b15611cb05760405163152a902d60e11b8152600481018590526024810184905260009081906001600160a01b03881690632a55205a90604401604080518083038186803b158015611ac857600080fd5b505afa158015611adc573d6000803e3d6000fd5b505050506040513d601f19601f82011682018060405250810190611b0091906126a7565b91509150604051806101400160405280848152602001886001600160a01b03168152602001878152602001836001600160a01b03168152602001336001600160a01b0316815260200160006001600160a01b0316815260200186815260200182815260200160011515815260200160001515815250600360008581526020019081526020016000206000820151816000015560208201518160010160006101000a8154816001600160a01b0302191690836001600160a01b031602179055506040820151816002015560608201518160030160006101000a8154816001600160a01b0302191690836001600160a01b0316021790555060808201518160040160006101000a8154816001600160a01b0302191690836001600160a01b0316021790555060a08201518160050160006101000a8154816001600160a01b0302191690836001600160a01b0316021790555060c0820151816006015560e082015181600701556101008201518160080160006101000a81548160ff0219169083151502179055506101208201518160080160016101000a81548160ff0219169083151502179055509050505050611e5f565b60003390506000604051806101400160405280848152602001886001600160a01b03168152602001878152602001836001600160a01b03168152602001336001600160a01b0316815260200160006001600160a01b0316815260200186815260200182815260200160011515815260200160001515815250600360008581526020019081526020016000206000820151816000015560208201518160010160006101000a8154816001600160a01b0302191690836001600160a01b031602179055506040820151816002015560608201518160030160006101000a8154816001600160a01b0302191690836001600160a01b0316021790555060808201518160040160006101000a8154816001600160a01b0302191690836001600160a01b0316021790555060a08201518160050160006101000a8154816001600160a01b0302191690836001600160a01b0316021790555060c0820151816006015560e082015181600701556101008201518160080160006101000a81548160ff0219169083151502179055506101208201518160080160016101000a81548160ff02191690831515021790555090505050505b6040516323b872dd60e01b81526001600160a01b038616906323b872dd90611e8f90339030908990600401612862565b600060405180830381600087803b158015611ea957600080fd5b505af1158015611ebd573d6000803e3d6000fd5b50506040805160608101825260008082526020820152925082019050611ee6846201518061295b565b611ef09042612943565b9052600082815260046020908152604080832084518155918401516001830180546001600160a01b0319166001600160a01b039283161790559381015160029092019190915551869288169184917f2ad024d53a0dc50c130967f8d4941927ee087ea31394cebb2b9599d3706c9c0091611f6e913391908a90612862565b60405180910390a450506001600055505050565b60026000541415611fa55760405162461bcd60e51b81526004016106f09061290c565b60026000908155818152600360205260409020600881015460ff161561200d5760405162461bcd60e51b815260206004820152601760248201527f54686973206974656d206973206f6e2061756374696f6e00000000000000000060448201526064016106f0565b80600601543414612088576040805162461bcd60e51b81526020600482015260248101919091527f506c65617365207375626d6974207468652061736b696e67207072696365206960448201527f6e206f7264657220746f20636f6d706c6574652074686520707572636861736560648201526084016106f0565b6008810154610100900460ff16156120d65760405162461bcd60e51b8152602060048201526011602482015270125d195b48185b1c9958591e481cdbdb19607a1b60448201526064016106f0565b600481015460038201546001600160a01b03908116911614156121345760018101546040516001600160a01b03909116903480156108fc02916000818181858888f1935050505015801561212e573d6000803e3d6000fd5b506121c3565b600481015460078201546040516001600160a01b039092169181156108fc0291906000818181858888f19350505050158015612174573d6000803e3d6000fd5b50600481015460078201546001600160a01b03909116906108fc90612199903461297a565b6040518115909202916000818181858888f193505050501580156121c1573d6000803e3d6000fd5b505b60028101546040516323b872dd60e01b81526001600160a01b038516916323b872dd916121f7913091339190600401612862565b600060405180830381600087803b15801561221157600080fd5b505af1158015612225573d6000803e3d6000fd5b5050506005820180546001600160a01b031916331790555060088101805461ff00191661010017905561225c600280546001019055565b600581015460048201546040518481526001600160a01b0392831692918216918616907f947311168d2a40fc244919c4730e9cdd04e55a2c2db85589585acb09f89efe1e9060200160405180910390a45050600160005550565b606060006122c360015490565b905060008060005b838110156123265733600360006122e3846001612943565b81526020810191909152604001600020600401546001600160a01b0316141561231457612311600184612943565b92505b8061231e81612991565b9150506122cb565b5060008267ffffffffffffffff81111561235057634e487b7160e01b600052604160045260246000fd5b60405190808252806020026020018201604052801561238957816020015b612376612605565b81526020019060019003908161236e5790505b50905060005b848110156106c45733600360006123a7846001612943565b81526020810191909152604001600020600401546001600160a01b031614156124b25760006123d7826001612943565b6000818152600360208181526040928390208351610140810185528154815260018201546001600160a01b0390811693820193909352600282015494810194909452918201548116606084015260048201548116608084015260058201541660a0830152600681015460c0830152600781015460e0830152600881015460ff80821615156101008086019190915290910416151561012083015285519293509185908790811061249757634e487b7160e01b600052603260045260246000fd5b60209081029190910101526124ad600186612943565b945050505b806124bc81612991565b91505061238f565b60006124cf836124e9565b80156124e057506124e0838361251c565b90505b92915050565b60006124fc826301ffc9a760e01b61251c565b80156124e35750612515826001600160e01b031961251c565b1592915050565b604080516001600160e01b0319831660248083019190915282518083039091018152604490910182526020810180516001600160e01b03166301ffc9a760e01b179052905160009190829081906001600160a01b0387169061753090612583908690612829565b6000604051808303818686fa925050503d80600081146125bf576040519150601f19603f3d011682016040523d82523d6000602084013e6125c4565b606091505b50915091506020815110156125df57600093505050506124e3565b8180156125fb5750808060200190518101906125fb9190612742565b9695505050505050565b6040805161014081018252600080825260208201819052918101829052606081018290526080810182905260a0810182905260c0810182905260e08101829052610100810182905261012081019190915290565b60006020828403121561266a578081fd5b8151612675816129c2565b9392505050565b6000806040838503121561268e578081fd5b8235612699816129c2565b946020939093013593505050565b600080604083850312156126b9578182fd5b82516126c4816129c2565b6020939093015192949293505050565b6000806000606084860312156126e8578081fd5b83356126f3816129c2565b95602085013595506040909401359392505050565b6000806000806080858703121561271d578081fd5b8435612728816129c2565b966020860135965060408601359560600135945092505050565b600060208284031215612753578081fd5b81518015158114612675578182fd5b600060208284031215612773578081fd5b5035919050565b6000815180845260208085019450808401835b8381101561281e57815180518852838101516001600160a01b03908116858a0152604080830151908a01526060808301518216908a01526080808301518216908a015260a0808301519091169089015260c0808201519089015260e080820151908901526101008082015115159089015261012090810151151590880152610140909601959082019060010161278d565b509495945050505050565b60008251815b81811015612849576020818601810151858301520161282f565b818111156128575782828501525b509190910192915050565b6001600160a01b039384168152919092166020820152604081019190915260600190565b6000602082526124e0602083018461277a565b600060408083526128ac8184018661277a565b838103602085810191909152855180835286820192820190855b818110156128fe57845180518452848101516001600160a01b03168585015286015186840152938301936060909201916001016128c6565b509098975050505050505050565b6020808252601f908201527f5265656e7472616e637947756172643a207265656e7472616e742063616c6c00604082015260600190565b60008219821115612956576129566129ac565b500190565b6000816000190483118215151615612975576129756129ac565b500290565b60008282101561298c5761298c6129ac565b500390565b60006000198214156129a5576129a56129ac565b5060010190565b634e487b7160e01b600052601160045260246000fd5b6001600160a01b03811681146129d757600080fd5b5056fea26469706673582212209e29476b97b7bdf2afc2945b9a64f835c4e49123d8e9eff59afd344b88760c3764736f6c63430008030033",
  "linkReferences": {},
  "deployedLinkReferences": {}
}