{
  "_format": "hh-sol-artifact-1",
  "contractName": "CollectionFactory",
  "sourceName": "contracts/CollectionFactory.sol",
  "abi": [
    {
      "inputs": [
        {
          "internalType": "uint256",
          "name": "price_",
          "type": "uint256"
        }
      ],
      "stateMutability": "nonpayable",
      "type": "constructor"
    },
    {
      "anonymous": false,
      "inputs": [
        {
          "indexed": true,
          "internalType": "address",
          "name": "creator",
          "type": "address"
        },
        {
          "indexed": true,
          "internalType": "address",
          "name": "contractAddress",
          "type": "address"
        },
        {
          "indexed": true,
          "internalType": "string",
          "name": "metaData",
          "type": "string"
        }
      ],
      "name": "CollectionCreated",
      "type": "event"
    },
    {
      "anonymous": false,
      "inputs": [
        {
          "indexed": true,
          "internalType": "address",
          "name": "previousOwner",
          "type": "address"
        },
        {
          "indexed": true,
          "internalType": "address",
          "name": "newOwner",
          "type": "address"
        }
      ],
      "name": "OwnershipTransferred",
      "type": "event"
    },
    {
      "inputs": [
        {
          "internalType": "string",
          "name": "name_",
          "type": "string"
        },
        {
          "internalType": "string",
          "name": "symbol_",
          "type": "string"
        },
        {
          "internalType": "string",
          "name": "metaData",
          "type": "string"
        }
      ],
      "name": "createCollection",
      "outputs": [],
      "stateMutability": "payable",
      "type": "function"
    },
    {
      "inputs": [
        {
          "internalType": "address",
          "name": "contractAddress",
          "type": "address"
        },
        {
          "internalType": "string",
          "name": "newHash",
          "type": "string"
        }
      ],
      "name": "editMetaData",
      "outputs": [],
      "stateMutability": "nonpayable",
      "type": "function"
    },
    {
      "inputs": [
        {
          "internalType": "uint256",
          "name": "startIndex",
          "type": "uint256"
        },
        {
          "internalType": "uint256",
          "name": "endIndex",
          "type": "uint256"
        }
      ],
      "name": "getCollectionsPaginated",
      "outputs": [
        {
          "components": [
            {
              "internalType": "address",
              "name": "contractAddress",
              "type": "address"
            },
            {
              "internalType": "string",
              "name": "metaDataHash",
              "type": "string"
            },
            {
              "internalType": "address",
              "name": "creator",
              "type": "address"
            }
          ],
          "internalType": "struct CollectionFactory.collectionInfo[]",
          "name": "",
          "type": "tuple[]"
        },
        {
          "internalType": "bool",
          "name": "",
          "type": "bool"
        }
      ],
      "stateMutability": "view",
      "type": "function"
    },
    {
      "inputs": [],
      "name": "getPrice",
      "outputs": [
        {
          "internalType": "uint256",
          "name": "",
          "type": "uint256"
        }
      ],
      "stateMutability": "view",
      "type": "function"
    },
    {
      "inputs": [],
      "name": "getUserCollections",
      "outputs": [
        {
          "components": [
            {
              "internalType": "address",
              "name": "contractAddress",
              "type": "address"
            },
            {
              "internalType": "string",
              "name": "metaDataHash",
              "type": "string"
            },
            {
              "internalType": "address",
              "name": "creator",
              "type": "address"
            }
          ],
          "internalType": "struct CollectionFactory.collectionInfo[]",
          "name": "",
          "type": "tuple[]"
        }
      ],
      "stateMutability": "view",
      "type": "function"
    },
    {
      "inputs": [],
      "name": "owner",
      "outputs": [
        {
          "internalType": "address",
          "name": "",
          "type": "address"
        }
      ],
      "stateMutability": "view",
      "type": "function"
    },
    {
      "inputs": [],
      "name": "renounceOwnership",
      "outputs": [],
      "stateMutability": "nonpayable",
      "type": "function"
    },
    {
      "inputs": [],
      "name": "retrieveBalance",
      "outputs": [],
      "stateMutability": "nonpayable",
      "type": "function"
    },
    {
      "inputs": [
        {
          "internalType": "uint256",
          "name": "newPrice_",
          "type": "uint256"
        }
      ],
      "name": "setPrice",
      "outputs": [],
      "stateMutability": "nonpayable",
      "type": "function"
    },
    {
      "inputs": [],
      "name": "totalCollections",
      "outputs": [
        {
          "internalType": "uint256",
          "name": "",
          "type": "uint256"
        }
      ],
      "stateMutability": "view",
      "type": "function"
    },
    {
      "inputs": [
        {
          "internalType": "address",
          "name": "newOwner",
          "type": "address"
        }
      ],
      "name": "transferOwnership",
      "outputs": [],
      "stateMutability": "nonpayable",
      "type": "function"
    }
  ],
  "bytecode": "0x608060405234801561001057600080fd5b5060405161363d38038061363d83398101604081905261002f91610090565b61003833610040565b6002556100a8565b600080546001600160a01b038381166001600160a01b0319831681178455604051919092169283917f8be0079c531659141344cd1fd0a4f28419497f9722a3daafe3b4186f6b6457e09190a35050565b6000602082840312156100a1578081fd5b5051919050565b613586806100b76000396000f3fe608060405260043610620000aa5760003560e01c806398d5fdca116200006d57806398d5fdca146200017d578063a49dac541462000194578063d79bd49914620001bb578063ece86c2114620001d3578063f2fde38b14620001ea578063fa6cabee146200020f57620000aa565b80635df44c9214620000af57806361d9db2d14620000ed578063715018a614620001145780638da5cb5b146200012e57806391b7f5ed1462000158575b600080fd5b348015620000bc57600080fd5b50620000d4620000ce36600462000ee5565b62000234565b604051620000e492919062001024565b60405180910390f35b348015620000fa57600080fd5b5062000105620004b0565b604051908152602001620000e4565b3480156200012157600080fd5b506200012c620004c3565b005b3480156200013b57600080fd5b506000546040516001600160a01b039091168152602001620000e4565b3480156200016557600080fd5b506200012c6200017736600462000ecc565b620004fe565b3480156200018a57600080fd5b5060025462000105565b348015620001a157600080fd5b50620001ac62000530565b604051620000e491906200100f565b348015620001c857600080fd5b506200012c62000739565b6200012c620001e436600462000e2c565b620007a4565b348015620001f757600080fd5b506200012c6200020936600462000db1565b620009ec565b3480156200021c57600080fd5b506200012c6200022e36600462000dd5565b62000a8b565b6060600083831015620002b45760405162461bcd60e51b815260206004820152603a60248201527f456e6420496e646578206e6565647320746f206265206772656174657220746860448201527f616e206f7220657175616c20746f20737461727420496e64657800000000000060648201526084015b60405180910390fd5b6000620002c28585620010e0565b620002cf906001620010c5565b905060008167ffffffffffffffff811115620002fb57634e487b7160e01b600052604160045260246000fd5b6040519080825280602002602001820160405280156200033857816020015b6200032462000bf2565b8152602001906001900390816200031a5790505b5090506000865b868111620004765760008181526005602090815260409182902082516060810190935280546001600160a01b0316835260018101805491928401916200038590620010fa565b80601f0160208091040260200160405190810160405280929190818152602001828054620003b390620010fa565b8015620004045780601f10620003d85761010080835404028352916020019162000404565b820191906000526020600020905b815481529060010190602001808311620003e657829003601f168201915b5050509183525050600291909101546001600160a01b031660209091015283518490849081106200044557634e487b7160e01b600052603260045260246000fd5b602002602001018190525081806200045d9062001137565b92505080806200046d9062001137565b9150506200033f565b5062000483600162000b9a565b8610156200049a5750925060009150620004a99050565b50925060019150620004a99050565b9250929050565b6000620004be600162000b9a565b905090565b6000546001600160a01b03163314620004f05760405162461bcd60e51b8152600401620002ab9062001090565b620004fc600062000ba2565b565b6000546001600160a01b031633146200052b5760405162461bcd60e51b8152600401620002ab9062001090565b600255565b336000908152600360205260408120546060918167ffffffffffffffff8111156200056b57634e487b7160e01b600052604160045260246000fd5b604051908082528060200260200182016040528015620005a857816020015b6200059462000bf2565b8152602001906001900390816200058a5790505b50905060005b8281101562000732573360009081526003602052604081208054600592919084908110620005ec57634e487b7160e01b600052603260045260246000fd5b906000526020600020015481526020019081526020016000206040518060600160405290816000820160009054906101000a90046001600160a01b03166001600160a01b03166001600160a01b031681526020016001820180546200065190620010fa565b80601f01602080910402602001604051908101604052809291908181526020018280546200067f90620010fa565b8015620006d05780601f10620006a457610100808354040283529160200191620006d0565b820191906000526020600020905b815481529060010190602001808311620006b257829003601f168201915b5050509183525050600291909101546001600160a01b031660209091015282518390839081106200071157634e487b7160e01b600052603260045260246000fd5b60200260200101819052508080620007299062001137565b915050620005ae565b5091505090565b6000546001600160a01b03163314620007665760405162461bcd60e51b8152600401620002ab9062001090565b600080546040516001600160a01b03909116914780156108fc02929091818181858888f19350505050158015620007a1573d6000803e3d6000fd5b50565b600254341015620008045760405162461bcd60e51b815260206004820152602360248201527f4e4654526f79616c74793a205061792074686520726571756972656420616d6f6044820152621d5b9d60ea1b6064820152608401620002ab565b62000813600180546001019055565b60008686868633604051620008289062000c25565b620008389594939291906200104a565b604051809103906000f08015801562000855573d6000803e3d6000fd5b50905060006040518060600160405280836001600160a01b0316815260200185858080601f01602080910402602001604051908101604052809392919081815260200183838082843760009201829052509385525050336020938401819052825250600390915260409020909150620008cf600162000b9a565b815460018181018455600093845260208420909101919091558291600591620008f89062000b9a565b8152602080820192909252604001600020825181546001600160a01b0319166001600160a01b039091161781558282015180519192620009419260018501929091019062000c33565b5060409190910151600290910180546001600160a01b0319166001600160a01b0390921691909117905562000977600162000b9a565b6001600160a01b038316600090815260046020526040908190209190915551620009a5908590859062000fff565b604051908190038120906001600160a01b0384169033907fa9a63cb75fdf6f638d49c249df7d5b94dd8bb8ac664ca12da7339862b9dd87ae90600090a45050505050505050565b6000546001600160a01b0316331462000a195760405162461bcd60e51b8152600401620002ab9062001090565b6001600160a01b03811662000a805760405162461bcd60e51b815260206004820152602660248201527f4f776e61626c653a206e6577206f776e657220697320746865207a65726f206160448201526564647265737360d01b6064820152608401620002ab565b620007a18162000ba2565b6001600160a01b03831660009081526004602052604090205462000b055760405162461bcd60e51b815260206004820152602a60248201527f436f6e747261637420646f65736e277420657869737420696e2073636f7065206044820152696f6620466163746f727960b01b6064820152608401620002ab565b6001600160a01b038084166000908152600460209081526040808320548352600590915290206002810154909116331462000b835760405162461bcd60e51b815260206004820152601e60248201527f4f6e6c792063726561746f722063616e2065646974206d6574614461746100006044820152606401620002ab565b62000b9360018201848462000cc2565b5050505050565b80545b919050565b600080546001600160a01b038381166001600160a01b0319831681178455604051919092169283917f8be0079c531659141344cd1fd0a4f28419497f9722a3daafe3b4186f6b6457e09190a35050565b604051806060016040528060006001600160a01b031681526020016060815260200160006001600160a01b031681525090565b6123e5806200116c83390190565b82805462000c4190620010fa565b90600052602060002090601f01602090048101928262000c65576000855562000cb0565b82601f1062000c8057805160ff191683800117855562000cb0565b8280016001018555821562000cb0579182015b8281111562000cb057825182559160200191906001019062000c93565b5062000cbe92915062000d3f565b5090565b82805462000cd090620010fa565b90600052602060002090601f01602090048101928262000cf4576000855562000cb0565b82601f1062000d0f5782800160ff1982351617855562000cb0565b8280016001018555821562000cb0579182015b8281111562000cb057823582559160200191906001019062000d22565b5b8082111562000cbe576000815560010162000d40565b80356001600160a01b038116811462000b9d57600080fd5b60008083601f84011262000d80578182fd5b50813567ffffffffffffffff81111562000d98578182fd5b602083019150836020828501011115620004a957600080fd5b60006020828403121562000dc3578081fd5b62000dce8262000d56565b9392505050565b60008060006040848603121562000dea578182fd5b62000df58462000d56565b9250602084013567ffffffffffffffff81111562000e11578283fd5b62000e1f8682870162000d6e565b9497909650939450505050565b6000806000806000806060878903121562000e45578182fd5b863567ffffffffffffffff8082111562000e5d578384fd5b62000e6b8a838b0162000d6e565b9098509650602089013591508082111562000e84578384fd5b62000e928a838b0162000d6e565b9096509450604089013591508082111562000eab578384fd5b5062000eba89828a0162000d6e565b979a9699509497509295939492505050565b60006020828403121562000ede578081fd5b5035919050565b6000806040838503121562000ef8578182fd5b50508035926020909101359150565b600082825180855260208086019550808260051b840101818601855b8481101562000fc857601f1986840381018a52825180516001600160a01b0316855285810151606087870181905281519087018190528a91905b8083101562000f7d57818301890151888401608001529188019162000f5d565b8083111562000f8f578b6080828a0101525b6040938401516001600160a01b038116898601529392509c88019c601f0190931695909501608001945050509083019060010162000f23565b5090979650505050505050565b60008284528282602086013780602084860101526020601f19601f85011685010190509392505050565b6000828483379101908152919050565b60006020825262000dce602083018462000f07565b60006040825262001039604083018562000f07565b905082151560208301529392505050565b6000606082526200106060608301878962000fd5565b82810360208401526200107581868862000fd5565b91505060018060a01b03831660408301529695505050505050565b6020808252818101527f4f776e61626c653a2063616c6c6572206973206e6f7420746865206f776e6572604082015260600190565b60008219821115620010db57620010db62001155565b500190565b600082821015620010f557620010f562001155565b500390565b600181811c908216806200110f57607f821691505b602082108114156200113157634e487b7160e01b600052602260045260246000fd5b50919050565b60006000198214156200114e576200114e62001155565b5060010190565b634e487b7160e01b600052601160045260246000fdfe60806040523480156200001157600080fd5b50604051620023e5380380620023e5833981016040819052620000349162000246565b828262000041336200009d565b6001805581516200005a906002906020850190620000ed565b50805162000070906003906020840190620000ed565b5050600d80546001600160a01b0319166001600160a01b0393909316929092179091555062000322915050565b600080546001600160a01b038381166001600160a01b0319831681178455604051919092169283917f8be0079c531659141344cd1fd0a4f28419497f9722a3daafe3b4186f6b6457e09190a35050565b828054620000fb90620002cf565b90600052602060002090601f0160209004810192826200011f57600085556200016a565b82601f106200013a57805160ff19168380011785556200016a565b828001600101855582156200016a579182015b828111156200016a5782518255916020019190600101906200014d565b50620001789291506200017c565b5090565b5b808211156200017857600081556001016200017d565b600082601f830112620001a4578081fd5b81516001600160401b0380821115620001c157620001c16200030c565b604051601f8301601f19908116603f01168101908282118183101715620001ec57620001ec6200030c565b8160405283815260209250868385880101111562000208578485fd5b8491505b838210156200022b57858201830151818301840152908201906200020c565b838211156200023c57848385830101525b9695505050505050565b6000806000606084860312156200025b578283fd5b83516001600160401b038082111562000272578485fd5b620002808783880162000193565b9450602086015191508082111562000296578384fd5b50620002a58682870162000193565b604086015190935090506001600160a01b0381168114620002c4578182fd5b809150509250925092565b600181811c90821680620002e457607f821691505b602082108114156200030657634e487b7160e01b600052602260045260246000fd5b50919050565b634e487b7160e01b600052604160045260246000fd5b6120b380620003326000396000f3fe60806040526004361061014f5760003560e01c80634f6ccce7116100b657806395d89b411161006f57806395d89b41146103dd578063a22cb465146103f2578063b88d4fde14610412578063c87b56dd14610432578063e985e9c514610452578063f2fde38b1461049b57610156565b80634f6ccce71461031d5780636352211e1461033d57806370a082311461035d578063715018a61461037d578063833b7b78146103925780638da5cb5b146103bf57610156565b806318160ddd1161010857806318160ddd1461024a57806323b872dd146102695780632a55205a146102895780632f745c59146102c85780633ccfd60b146102e857806342842e0e146102fd57610156565b806301ffc9a71461015b578063056b01ce1461019057806306fdde03146101b2578063081812fc146101d4578063095ea7b31461020c5780630ee2cb101461022c57610156565b3661015657005b600080fd5b34801561016757600080fd5b5061017b610176366004611cb3565b6104bb565b60405190151581526020015b60405180910390f35b34801561019c57600080fd5b506101b06101ab366004611ceb565b61051e565b005b3480156101be57600080fd5b506101c76105c9565b6040516101879190611e2f565b3480156101e057600080fd5b506101f46101ef366004611d5e565b61065b565b6040516001600160a01b039091168152602001610187565b34801561021857600080fd5b506101b0610227366004611c8a565b6106e3565b34801561023857600080fd5b50600d546001600160a01b03166101f4565b34801561025657600080fd5b50600a545b604051908152602001610187565b34801561027557600080fd5b506101b0610284366004611b40565b6107f9565b34801561029557600080fd5b506102a96102a4366004611d76565b61082a565b604080516001600160a01b039093168352602083019190915201610187565b3480156102d457600080fd5b5061025b6102e3366004611c8a565b610868565b3480156102f457600080fd5b506101b06108fe565b34801561030957600080fd5b506101b0610318366004611b40565b610964565b34801561032957600080fd5b5061025b610338366004611d5e565b61097f565b34801561034957600080fd5b506101f4610358366004611d5e565b610a20565b34801561036957600080fd5b5061025b610378366004611afd565b610a97565b34801561038957600080fd5b506101b0610b1e565b34801561039e57600080fd5b5061025b6103ad366004611d5e565b6000908152600f602052604090205490565b3480156103cb57600080fd5b506000546001600160a01b03166101f4565b3480156103e957600080fd5b506101c7610b84565b3480156103fe57600080fd5b506101b061040d366004611c50565b610b93565b34801561041e57600080fd5b506101b061042d366004611b7b565b610ba2565b34801561043e57600080fd5b506101c761044d366004611d5e565b610bda565b34801561045e57600080fd5b5061017b61046d366004611b17565b6001600160a01b03918216600090815260076020908152604080832093909416825291909152205460ff1690565b3480156104a757600080fd5b506101b06104b6366004611afd565b610be5565b60006001600160e01b031982166380ac58cd60e01b14806104ec57506001600160e01b0319821663780e9d6360e01b145b8061050757506001600160e01b0319821663152a902d60e11b145b80610516575061051682610cad565b90505b919050565b600d546001600160a01b031633146105515760405162461bcd60e51b815260040161054890611e94565b60405180910390fd5b61055f600e80546001019055565b600061056a600e5490565b90506105763382610cd2565b6105b68185858080601f016020809104026020016040519081016040528093929190818152602001838380828437600092019190915250610e1292505050565b6000908152600f60205260409020555050565b6060600280546105d890611fbb565b80601f016020809104026020016040519081016040528092919081815260200182805461060490611fbb565b80156106515780601f1061062657610100808354040283529160200191610651565b820191906000526020600020905b81548152906001019060200180831161063457829003601f168201915b5050505050905090565b600061066682610e9d565b6106c75760405162461bcd60e51b815260206004820152602c60248201527f4552433732313a20617070726f76656420717565727920666f72206e6f6e657860448201526b34b9ba32b73a103a37b5b2b760a11b6064820152608401610548565b506000908152600660205260409020546001600160a01b031690565b60006106ee82610a20565b9050806001600160a01b0316836001600160a01b0316141561075c5760405162461bcd60e51b815260206004820152602160248201527f4552433732313a20617070726f76616c20746f2063757272656e74206f776e656044820152603960f91b6064820152608401610548565b336001600160a01b03821614806107785750610778813361046d565b6107ea5760405162461bcd60e51b815260206004820152603860248201527f4552433732313a20617070726f76652063616c6c6572206973206e6f74206f7760448201527f6e6572206e6f7220617070726f76656420666f7220616c6c00000000000000006064820152608401610548565b6107f48383610eba565b505050565b6108033382610f28565b61081f5760405162461bcd60e51b815260040161054890611edc565b6107f4838383611012565b600d546000838152600f60205260408120546001600160a01b03909216916064906108559085611f59565b61085f9190611f45565b90509250929050565b600061087383610a97565b82106108d55760405162461bcd60e51b815260206004820152602b60248201527f455243373231456e756d657261626c653a206f776e657220696e646578206f7560448201526a74206f6620626f756e647360a81b6064820152608401610548565b506001600160a01b03919091166000908152600860209081526040808320938352929052205490565b600d546001600160a01b031633146109285760405162461bcd60e51b815260040161054890611e94565b600d546040516001600160a01b03909116904780156108fc02916000818181858888f19350505050158015610961573d6000803e3d6000fd5b50565b6107f483838360405180602001604052806000815250610ba2565b600061098a600a5490565b82106109ed5760405162461bcd60e51b815260206004820152602c60248201527f455243373231456e756d657261626c653a20676c6f62616c20696e646578206f60448201526b7574206f6620626f756e647360a01b6064820152608401610548565b600a8281548110610a0e57634e487b7160e01b600052603260045260246000fd5b90600052602060002001549050919050565b6000818152600460205260408120546001600160a01b0316806105165760405162461bcd60e51b815260206004820152602960248201527f4552433732313a206f776e657220717565727920666f72206e6f6e657869737460448201526832b73a103a37b5b2b760b91b6064820152608401610548565b60006001600160a01b038216610b025760405162461bcd60e51b815260206004820152602a60248201527f4552433732313a2062616c616e636520717565727920666f7220746865207a65604482015269726f206164647265737360b01b6064820152608401610548565b506001600160a01b031660009081526005602052604090205490565b6000546001600160a01b03163314610b785760405162461bcd60e51b815260206004820181905260248201527f4f776e61626c653a2063616c6c6572206973206e6f7420746865206f776e65726044820152606401610548565b610b8260006111b9565b565b6060600380546105d890611fbb565b610b9e338383611209565b5050565b610bac3383610f28565b610bc85760405162461bcd60e51b815260040161054890611edc565b610bd4848484846112d8565b50505050565b60606105168261130b565b6000546001600160a01b03163314610c3f5760405162461bcd60e51b815260206004820181905260248201527f4f776e61626c653a2063616c6c6572206973206e6f7420746865206f776e65726044820152606401610548565b6001600160a01b038116610ca45760405162461bcd60e51b815260206004820152602660248201527f4f776e61626c653a206e6577206f776e657220697320746865207a65726f206160448201526564647265737360d01b6064820152608401610548565b610961816111b9565b60006001600160e01b0319821663780e9d6360e01b148061051657506105168261147b565b6001600160a01b038216610d285760405162461bcd60e51b815260206004820181905260248201527f4552433732313a206d696e7420746f20746865207a65726f20616464726573736044820152606401610548565b610d3181610e9d565b15610d7e5760405162461bcd60e51b815260206004820152601c60248201527f4552433732313a20746f6b656e20616c7265616479206d696e746564000000006044820152606401610548565b610d8a600083836114cb565b6001600160a01b0382166000908152600560205260408120805460019290610db3908490611f2d565b909155505060008181526004602052604080822080546001600160a01b0319166001600160a01b03861690811790915590518392907fddf252ad1be2c89b69c2b068fc378daa952ba7f163c4a11628f55a4df523b3ef908290a4610b9e565b610e1b82610e9d565b610e7e5760405162461bcd60e51b815260206004820152602e60248201527f45524337323155524953746f726167653a2055524920736574206f66206e6f6e60448201526d32bc34b9ba32b73a103a37b5b2b760911b6064820152608401610548565b6000828152600c6020908152604090912082516107f492840190611a4d565b6000908152600460205260409020546001600160a01b0316151590565b600081815260066020526040902080546001600160a01b0319166001600160a01b0384169081179091558190610eef82610a20565b6001600160a01b03167f8c5be1e5ebec7d5bd14f71427d1e84f3dd0314c0f7b2291e5b200ac8c7c3b92560405160405180910390a45050565b6000610f3382610e9d565b610f945760405162461bcd60e51b815260206004820152602c60248201527f4552433732313a206f70657261746f7220717565727920666f72206e6f6e657860448201526b34b9ba32b73a103a37b5b2b760a11b6064820152608401610548565b6000610f9f83610a20565b9050806001600160a01b0316846001600160a01b03161480610fda5750836001600160a01b0316610fcf8461065b565b6001600160a01b0316145b8061100a57506001600160a01b0380821660009081526007602090815260408083209388168352929052205460ff165b949350505050565b826001600160a01b031661102582610a20565b6001600160a01b0316146110895760405162461bcd60e51b815260206004820152602560248201527f4552433732313a207472616e736665722066726f6d20696e636f72726563742060448201526437bbb732b960d91b6064820152608401610548565b6001600160a01b0382166110eb5760405162461bcd60e51b8152602060048201526024808201527f4552433732313a207472616e7366657220746f20746865207a65726f206164646044820152637265737360e01b6064820152608401610548565b6110f68383836114cb565b611101600082610eba565b6001600160a01b038316600090815260056020526040812080546001929061112a908490611f78565b90915550506001600160a01b0382166000908152600560205260408120805460019290611158908490611f2d565b909155505060008181526004602052604080822080546001600160a01b0319166001600160a01b0386811691821790925591518493918716917fddf252ad1be2c89b69c2b068fc378daa952ba7f163c4a11628f55a4df523b3ef91a46107f4565b600080546001600160a01b038381166001600160a01b0319831681178455604051919092169283917f8be0079c531659141344cd1fd0a4f28419497f9722a3daafe3b4186f6b6457e09190a35050565b816001600160a01b0316836001600160a01b0316141561126b5760405162461bcd60e51b815260206004820152601960248201527f4552433732313a20617070726f766520746f2063616c6c6572000000000000006044820152606401610548565b6001600160a01b03838116600081815260076020908152604080832094871680845294825291829020805460ff191686151590811790915591519182527f17307eab39ab6107e8899845ad3d59bd9653f200f220920489ca2b5937696c31910160405180910390a3505050565b6112e3848484611012565b6112ef848484846114d6565b610bd45760405162461bcd60e51b815260040161054890611e42565b606061131682610e9d565b61137c5760405162461bcd60e51b815260206004820152603160248201527f45524337323155524953746f726167653a2055524920717565727920666f72206044820152703737b732bc34b9ba32b73a103a37b5b2b760791b6064820152608401610548565b6000828152600c60205260408120805461139590611fbb565b80601f01602080910402602001604051908101604052809291908181526020018280546113c190611fbb565b801561140e5780601f106113e35761010080835404028352916020019161140e565b820191906000526020600020905b8154815290600101906020018083116113f157829003601f168201915b50505050509050600061142c60408051602081019091526000815290565b905080516000141561144057509050610519565b81511561147257808260405160200161145a929190611dc3565b60405160208183030381529060405292505050610519565b61100a846115e3565b60006001600160e01b031982166380ac58cd60e01b14806114ac57506001600160e01b03198216635b5e139f60e01b145b8061051657506301ffc9a760e01b6001600160e01b0319831614610516565b6107f48383836116bb565b60006001600160a01b0384163b156115d857604051630a85bd0160e11b81526001600160a01b0385169063150b7a029061151a903390899088908890600401611df2565b602060405180830381600087803b15801561153457600080fd5b505af1925050508015611564575060408051601f3d908101601f1916820190925261156191810190611ccf565b60015b6115be573d808015611592576040519150601f19603f3d011682016040523d82523d6000602084013e611597565b606091505b5080516115b65760405162461bcd60e51b815260040161054890611e42565b805181602001fd5b6001600160e01b031916630a85bd0160e11b14905061100a565b506001949350505050565b60606115ee82610e9d565b6116525760405162461bcd60e51b815260206004820152602f60248201527f4552433732314d657461646174613a2055524920717565727920666f72206e6f60448201526e3732bc34b9ba32b73a103a37b5b2b760891b6064820152608401610548565b600061166960408051602081019091526000815290565b9050600081511161168957604051806020016040528060008152506116b4565b8061169384611778565b6040516020016116a4929190611dc3565b6040516020818303038152906040525b9392505050565b6001600160a01b0383166117165761171181600a80546000838152600b60205260408120829055600182018355919091527fc65a7bb8d6351c1cf70c95a316cc6a92839c986682d98bc35f958f4883f9d2a80155565b611739565b816001600160a01b0316836001600160a01b031614611739576117398382611893565b6001600160a01b0382166117555761175081611930565b6107f4565b826001600160a01b0316826001600160a01b0316146107f4576107f48282611a09565b60608161179d57506040805180820190915260018152600360fc1b6020820152610519565b8160005b81156117c757806117b181611ff6565b91506117c09050600a83611f45565b91506117a1565b60008167ffffffffffffffff8111156117f057634e487b7160e01b600052604160045260246000fd5b6040519080825280601f01601f19166020018201604052801561181a576020820181803683370190505b5090505b841561100a5761182f600183611f78565b915061183c600a86612011565b611847906030611f2d565b60f81b81838151811061186a57634e487b7160e01b600052603260045260246000fd5b60200101906001600160f81b031916908160001a90535061188c600a86611f45565b945061181e565b600060016118a084610a97565b6118aa9190611f78565b6000838152600960205260409020549091508082146118fd576001600160a01b03841660009081526008602090815260408083208584528252808320548484528184208190558352600990915290208190555b5060009182526009602090815260408084208490556001600160a01b039094168352600881528383209183525290812055565b600a5460009061194290600190611f78565b6000838152600b6020526040812054600a805493945090928490811061197857634e487b7160e01b600052603260045260246000fd5b9060005260206000200154905080600a83815481106119a757634e487b7160e01b600052603260045260246000fd5b6000918252602080832090910192909255828152600b9091526040808220849055858252812055600a8054806119ed57634e487b7160e01b600052603160045260246000fd5b6001900381819060005260206000200160009055905550505050565b6000611a1483610a97565b6001600160a01b039093166000908152600860209081526040808320868452825280832085905593825260099052919091209190915550565b828054611a5990611fbb565b90600052602060002090601f016020900481019282611a7b5760008555611ac1565b82601f10611a9457805160ff1916838001178555611ac1565b82800160010185558215611ac1579182015b82811115611ac1578251825591602001919060010190611aa6565b50611acd929150611ad1565b5090565b5b80821115611acd5760008155600101611ad2565b80356001600160a01b038116811461051957600080fd5b600060208284031215611b0e578081fd5b6116b482611ae6565b60008060408385031215611b29578081fd5b611b3283611ae6565b915061085f60208401611ae6565b600080600060608486031215611b54578081fd5b611b5d84611ae6565b9250611b6b60208501611ae6565b9150604084013590509250925092565b60008060008060808587031215611b90578081fd5b611b9985611ae6565b9350611ba760208601611ae6565b925060408501359150606085013567ffffffffffffffff80821115611bca578283fd5b818701915087601f830112611bdd578283fd5b813581811115611bef57611bef612051565b604051601f8201601f19908116603f01168101908382118183101715611c1757611c17612051565b816040528281528a6020848701011115611c2f578586fd5b82602086016020830137918201602001949094529598949750929550505050565b60008060408385031215611c62578182fd5b611c6b83611ae6565b915060208301358015158114611c7f578182fd5b809150509250929050565b60008060408385031215611c9c578182fd5b611ca583611ae6565b946020939093013593505050565b600060208284031215611cc4578081fd5b81356116b481612067565b600060208284031215611ce0578081fd5b81516116b481612067565b600080600060408486031215611cff578283fd5b833567ffffffffffffffff80821115611d16578485fd5b818601915086601f830112611d29578485fd5b813581811115611d37578586fd5b876020828501011115611d48578586fd5b6020928301989097509590910135949350505050565b600060208284031215611d6f578081fd5b5035919050565b60008060408385031215611d88578182fd5b50508035926020909101359150565b60008151808452611daf816020860160208601611f8f565b601f01601f19169290920160200192915050565b60008351611dd5818460208801611f8f565b835190830190611de9818360208801611f8f565b01949350505050565b6001600160a01b0385811682528416602082015260408101839052608060608201819052600090611e2590830184611d97565b9695505050505050565b6000602082526116b46020830184611d97565b60208082526032908201527f4552433732313a207472616e7366657220746f206e6f6e20455243373231526560408201527131b2b4bb32b91034b6b83632b6b2b73a32b960711b606082015260800190565b60208082526028908201527f526f79616c747920436f6e7472616374203a2043616c6c6572206973206e6f746040820152671031b932b0ba37b960c11b606082015260800190565b60208082526031908201527f4552433732313a207472616e736665722063616c6c6572206973206e6f74206f6040820152701ddb995c881b9bdc88185c1c1c9bdd9959607a1b606082015260800190565b60008219821115611f4057611f40612025565b500190565b600082611f5457611f5461203b565b500490565b6000816000190483118215151615611f7357611f73612025565b500290565b600082821015611f8a57611f8a612025565b500390565b60005b83811015611faa578181015183820152602001611f92565b83811115610bd45750506000910152565b600181811c90821680611fcf57607f821691505b60208210811415611ff057634e487b7160e01b600052602260045260246000fd5b50919050565b600060001982141561200a5761200a612025565b5060010190565b6000826120205761202061203b565b500690565b634e487b7160e01b600052601160045260246000fd5b634e487b7160e01b600052601260045260246000fd5b634e487b7160e01b600052604160045260246000fd5b6001600160e01b03198116811461096157600080fdfea2646970667358221220f96793aaa75c55588b319dbe6438598f0b9952f2838b1098cb95c1921b3da96564736f6c63430008030033a2646970667358221220ca62b66775f7b85eccf2b7ed2e215b6a54062381cef584dd7c153a046feb414f64736f6c63430008030033",
  "linkReferences": {},
  "deployedLinkReferences": {}
}